{
  "contractName": "ExampleTransferFund",
  "abi": [
    {
      "stateMutability": "payable",
      "type": "receive"
    },
    {
      "inputs": [],
      "name": "getBalance",
      "outputs": [
        {
          "internalType": "uint256",
          "name": "",
          "type": "uint256"
        }
      ],
      "stateMutability": "view",
      "type": "function"
    },
    {
      "inputs": [],
      "name": "deposit",
      "outputs": [],
      "stateMutability": "payable",
      "type": "function"
    }
  ],
  "bytecode": "0x608060405234801561001057600080fd5b5060cc8061001f6000396000f3fe608060405260043610602a5760003560e01c806312065fe0146035578063d0e30db014605457600080fd5b36603057005b600080fd5b348015604057600080fd5b504760405190815260200160405180910390f35b605a605c565b005b6000805490806069836070565b9190505550565b600060018201608f57634e487b7160e01b600052601160045260246000fd5b506001019056fea2646970667358221220a235350d22adb9d777376807557be0b822e649829194afcfc33cf223195e69d564736f6c63430008130033",
  "immutableReferences": {},
  "source": "// SPDX-License-Identifier: MIT\npragma solidity ^0.8.19;\n\n/*\nA simplified Smart Wallet:\n1. Only one owner.\n2. Can receive funds.\n3. Allows fund transfers.\n4. Non-owners have transfer limits.\n5. Owner can add authorized voters.\n6. Authorized voters can vote to change ownership (requires 3 votes).\n*/\n\ncontract ExampleTransferFund {\n\n    uint counter;\n    function getBalance() public view returns(uint) {\n        return address(this).balance;\n    }\n\n    function deposit() public payable {\n        counter++;\n     }\n\n    receive() external payable { }\n}\n\ncontract SmarContracttWallet {\n\n    address payable public owner;\n\n    mapping(address => uint) public limits;\n    mapping(address => bool) public AbletoSend;\n    mapping(address => bool) public allowed;\n\n    mapping(address => uint256) public userDeposits;\n\n    address[] public allowedUsers;\n\n    mapping(address => bool) authorizedVoters;\n\n    event Deposit(address indexed sender, uint amount);\n    event FundsTransferred(address indexed to, uint amount);\n    event AccessSet(address indexed user, bool allowed);\n\n    address payable nextOwner;\n    uint VoterCount;\n    uint constant votesNeeded = 3;\n    mapping(address => mapping(address => bool)) hasVoterAlrVoted;\n\n    constructor() {\n        owner = payable(msg.sender);\n    }\n\n    address[] public listofVoters;\n\n    function isOwner(address _addr) public view returns (bool) {\n    return _addr == owner;\n    }\n\n    function assignVoter(address _voter) public {\n        require(msg.sender == owner, \"You are not authorized for this action\");\n\n        authorizedVoters[_voter] = true;\n\n        listofVoters.push(_voter);\n    }\n\n    function getVoterList() public view returns (address[] memory) {\n        return listofVoters;\n    }\n\n    function voteForNewOwner(address payable _newOwner) public {\n        require(authorizedVoters[msg.sender], \"You are not authorized for this action\");\n\n        // this makes sure the same voter doesn't vote twice for the specific newOwner\n        require(hasVoterAlrVoted[_newOwner][msg.sender] == false, \"You have already voted\");\n\n        if(nextOwner != _newOwner){\n            nextOwner = _newOwner;\n            VoterCount = 0;\n        }\n\n        VoterCount++;\n        hasVoterAlrVoted[_newOwner][msg.sender] = true;\n\n        if(VoterCount >= votesNeeded){\n            owner = _newOwner;\n            nextOwner = payable(address(0));\n        }\n\n    }\n\n    // The limits are set for other parties by the owner through this function\n    function setLimit(address _whoCanSend, uint _restriction) public {\n        require(msg.sender == owner, \"You are not authorized for this action\");\n\n        // set limit\n        limits[_whoCanSend] = _restriction;\n\n        // if(_restriction > 0){\n        //     AbletoSend[_whoCanSend] = true;\n        // }\n        // else {\n        //     AbletoSend[_whoCanSend] = false;\n        // }\n        \n        \n    }\n\n    // Funds Transfering\n    function transferFunds(address payable _to, uint amountToTransfer) public payable {\n        //require(msg.sender == owner, \"This action is restricted to the owner\");\n\n       // If it's not the owner, then limits apply\n        if(msg.sender != owner) {\n        // If a non-zero limit is set for this address, enforce it.\n            // if (limits[msg.sender] != 0) {\n            // require(limits[msg.sender] >= amountToTransfer, \"Transfer Limit Exceeded\");\n            // limits[msg.sender] -= amountToTransfer;\n            // }\n            // Ensure the sender is allowed to transfer.\n\n            // require(isAllowed(msg.sender), \"You are not allowed to transfer funds\");\n            \n            require(limits[msg.sender] >= amountToTransfer, \"Transfer Limit Exceeded\");\n            // require(AbletoSend[msg.sender], \"Transfer Amount Unacceptable\");\n            limits[msg.sender] -= amountToTransfer;\n        }\n        require(address(this).balance >= amountToTransfer, \"Insufficient contract balance\");\n        _to.transfer(amountToTransfer);\n        \n\n        // The owner has no limit to transfer funds\n        // (bool success, bytes memory returnData) =  _to.call{value: amountToTransfer}(_payload);\n        // require(success, \"Failed\");\n        // return returnData;\n\n    }\n\n    // Returns an array of addresses that have allowed access.\n    function getAllowedUsers() public view returns (address[] memory) {\n        uint count = 0;\n        // First, count how many users have access.\n        for (uint i = 0; i < allowedUsers.length; i++) {\n            if (allowed[allowedUsers[i]]) {\n                count++;\n            }\n        }\n        // Allocate an array with the exact count.\n        address[] memory result = new address[](count);\n        uint j = 0;\n        for (uint i = 0; i < allowedUsers.length; i++) {\n            if (allowed[allowedUsers[i]]) {\n                result[j] = allowedUsers[i];\n                j++;\n            }\n        }\n        return result;\n    }\n\n    // Function to receive ETH\n    receive() external payable {\n        emit Deposit(msg.sender, msg.value);\n    }\n\n    // Explicit deposit function\n    function deposit() public payable {\n        require(msg.value > 0, \"Deposit must be greater than 0\");\n        userDeposits[msg.sender] += msg.value;\n        emit Deposit(msg.sender, msg.value);\n    }\n\n    // Set access restrictions; only the owner can do this.\n    function setAccess(address user, bool _allowed) public {\n        require(msg.sender == owner, \"Only owner can set access\");\n        allowed[user] = _allowed;\n        emit AccessSet(user, _allowed);\n\n        // If granting access, add user to allowedUsers array if not already present.\n        if (_allowed) {\n            bool alreadyExists = false;\n            for (uint i = 0; i < allowedUsers.length; i++) {\n                if (allowedUsers[i] == user) {\n                    alreadyExists = true;\n                    break;\n                }\n            }\n            if (!alreadyExists) {\n                allowedUsers.push(user);\n            }\n        }\n    }\n\n    // Function to check if the caller is allowed to access the wallet.\n    // It simply returns the value in the mapping. (Defaults to false if not set.)\n    function isAllowed() public view returns (bool) {\n        if (msg.sender == owner) {\n            return true;\n        }\n        return allowed[msg.sender];\n    }\n\n    // Transfer funds from the contract; only the owner is allowed in this example.\n    function exampletransferFunds(address payable to, uint amount) external {\n        require(msg.sender == owner, \"Only owner can transfer funds\");\n        require(address(this).balance >= amount, \"Insufficient contract balance\");\n        to.transfer(amount);\n        emit FundsTransferred(to, amount);\n    }\n\n\n}",
  "sourcePath": "/Users/yash/smart-wallet/contracts/SmartWallet.sol",
  "compiler": {
    "name": "solc",
    "version": "0.8.19+commit.7dd6d404.Emscripten.clang"
  },
  "schemaVersion": "3.4.16",
  "updatedAt": "2025-02-22T18:08:45.708Z",
  "devdoc": {
    "kind": "dev",
    "methods": {},
    "version": 1
  },
  "userdoc": {
    "kind": "user",
    "methods": {},
    "version": 1
  }
}