{
  "contractName": "SmarContracttWallet",
  "abi": [
    {
      "inputs": [],
      "stateMutability": "nonpayable",
      "type": "constructor"
    },
    {
      "anonymous": false,
      "inputs": [
        {
          "indexed": true,
          "internalType": "address",
          "name": "user",
          "type": "address"
        },
        {
          "indexed": false,
          "internalType": "bool",
          "name": "allowed",
          "type": "bool"
        }
      ],
      "name": "AccessSet",
      "type": "event"
    },
    {
      "anonymous": false,
      "inputs": [
        {
          "indexed": true,
          "internalType": "address",
          "name": "sender",
          "type": "address"
        },
        {
          "indexed": false,
          "internalType": "uint256",
          "name": "amount",
          "type": "uint256"
        }
      ],
      "name": "Deposit",
      "type": "event"
    },
    {
      "anonymous": false,
      "inputs": [
        {
          "indexed": true,
          "internalType": "address",
          "name": "to",
          "type": "address"
        },
        {
          "indexed": false,
          "internalType": "uint256",
          "name": "amount",
          "type": "uint256"
        }
      ],
      "name": "FundsTransferred",
      "type": "event"
    },
    {
      "inputs": [
        {
          "internalType": "address",
          "name": "",
          "type": "address"
        }
      ],
      "name": "AbletoSend",
      "outputs": [
        {
          "internalType": "bool",
          "name": "",
          "type": "bool"
        }
      ],
      "stateMutability": "view",
      "type": "function",
      "constant": true
    },
    {
      "inputs": [
        {
          "internalType": "address",
          "name": "",
          "type": "address"
        }
      ],
      "name": "allowed",
      "outputs": [
        {
          "internalType": "bool",
          "name": "",
          "type": "bool"
        }
      ],
      "stateMutability": "view",
      "type": "function",
      "constant": true
    },
    {
      "inputs": [
        {
          "internalType": "uint256",
          "name": "",
          "type": "uint256"
        }
      ],
      "name": "allowedUsers",
      "outputs": [
        {
          "internalType": "address",
          "name": "",
          "type": "address"
        }
      ],
      "stateMutability": "view",
      "type": "function",
      "constant": true
    },
    {
      "inputs": [
        {
          "internalType": "address",
          "name": "",
          "type": "address"
        }
      ],
      "name": "limits",
      "outputs": [
        {
          "internalType": "uint256",
          "name": "",
          "type": "uint256"
        }
      ],
      "stateMutability": "view",
      "type": "function",
      "constant": true
    },
    {
      "inputs": [
        {
          "internalType": "uint256",
          "name": "",
          "type": "uint256"
        }
      ],
      "name": "listofVoters",
      "outputs": [
        {
          "internalType": "address",
          "name": "",
          "type": "address"
        }
      ],
      "stateMutability": "view",
      "type": "function",
      "constant": true
    },
    {
      "inputs": [],
      "name": "owner",
      "outputs": [
        {
          "internalType": "address payable",
          "name": "",
          "type": "address"
        }
      ],
      "stateMutability": "view",
      "type": "function",
      "constant": true
    },
    {
      "inputs": [
        {
          "internalType": "address",
          "name": "",
          "type": "address"
        }
      ],
      "name": "userDeposits",
      "outputs": [
        {
          "internalType": "uint256",
          "name": "",
          "type": "uint256"
        }
      ],
      "stateMutability": "view",
      "type": "function",
      "constant": true
    },
    {
      "stateMutability": "payable",
      "type": "receive",
      "payable": true
    },
    {
      "inputs": [
        {
          "internalType": "address",
          "name": "_addr",
          "type": "address"
        }
      ],
      "name": "isOwner",
      "outputs": [
        {
          "internalType": "bool",
          "name": "",
          "type": "bool"
        }
      ],
      "stateMutability": "view",
      "type": "function",
      "constant": true
    },
    {
      "inputs": [
        {
          "internalType": "address",
          "name": "_voter",
          "type": "address"
        }
      ],
      "name": "assignVoter",
      "outputs": [],
      "stateMutability": "nonpayable",
      "type": "function"
    },
    {
      "inputs": [],
      "name": "getVoterList",
      "outputs": [
        {
          "internalType": "address[]",
          "name": "",
          "type": "address[]"
        }
      ],
      "stateMutability": "view",
      "type": "function",
      "constant": true
    },
    {
      "inputs": [
        {
          "internalType": "address payable",
          "name": "_newOwner",
          "type": "address"
        }
      ],
      "name": "voteForNewOwner",
      "outputs": [],
      "stateMutability": "nonpayable",
      "type": "function"
    },
    {
      "inputs": [
        {
          "internalType": "address",
          "name": "_whoCanSend",
          "type": "address"
        },
        {
          "internalType": "uint256",
          "name": "_restriction",
          "type": "uint256"
        }
      ],
      "name": "setLimit",
      "outputs": [],
      "stateMutability": "nonpayable",
      "type": "function"
    },
    {
      "inputs": [
        {
          "internalType": "address payable",
          "name": "_to",
          "type": "address"
        },
        {
          "internalType": "uint256",
          "name": "amountToTransfer",
          "type": "uint256"
        }
      ],
      "name": "transferFunds",
      "outputs": [],
      "stateMutability": "payable",
      "type": "function",
      "payable": true
    },
    {
      "inputs": [],
      "name": "getAllowedUsers",
      "outputs": [
        {
          "internalType": "address[]",
          "name": "",
          "type": "address[]"
        }
      ],
      "stateMutability": "view",
      "type": "function",
      "constant": true
    },
    {
      "inputs": [],
      "name": "deposit",
      "outputs": [],
      "stateMutability": "payable",
      "type": "function",
      "payable": true
    },
    {
      "inputs": [
        {
          "internalType": "address",
          "name": "user",
          "type": "address"
        },
        {
          "internalType": "bool",
          "name": "_allowed",
          "type": "bool"
        }
      ],
      "name": "setAccess",
      "outputs": [],
      "stateMutability": "nonpayable",
      "type": "function"
    },
    {
      "inputs": [],
      "name": "isAllowed",
      "outputs": [
        {
          "internalType": "bool",
          "name": "",
          "type": "bool"
        }
      ],
      "stateMutability": "view",
      "type": "function",
      "constant": true
    },
    {
      "inputs": [
        {
          "internalType": "address payable",
          "name": "to",
          "type": "address"
        },
        {
          "internalType": "uint256",
          "name": "amount",
          "type": "uint256"
        }
      ],
      "name": "exampletransferFunds",
      "outputs": [],
      "stateMutability": "nonpayable",
      "type": "function"
    }
  ],
  "bytecode": "0x608060405234801561001057600080fd5b50600080546001600160a01b03191633179055610ed4806100326000396000f3fe60806040526004361061010d5760003560e01c8063a21fbc9211610095578063d0e30db011610064578063d0e30db01461034e578063d63a8e1114610356578063d63bdb9514610386578063e8ad831c146103a6578063f062f202146103c657600080fd5b8063a21fbc92146102d7578063a66c94e9146102ec578063b28d92ae1461030c578063b84614a51461032e57600080fd5b806336db43b5116100dc57806336db43b51461022a5780634a5f99251461024c5780636f09699c1461026c5780638da5cb5b1461028c578063990dc9db146102c457600080fd5b806307fa49fe1461014e5780630ba36dcd1461019357806320d7bec1146101ce5780632f54bf6e146101fb57600080fd5b366101495760405134815233907fe1fffcc4923d04b559f4d29a8bfc6cda04eb5b0d3c460751c2402c5c5cc9109c9060200160405180910390a2005b600080fd5b34801561015a57600080fd5b5061017e610169366004610cdd565b60026020526000908152604090205460ff1681565b60405190151581526020015b60405180910390f35b34801561019f57600080fd5b506101c06101ae366004610cdd565b60046020526000908152604090205481565b60405190815260200161018a565b3480156101da57600080fd5b506101c06101e9366004610cdd565b60016020526000908152604090205481565b34801561020757600080fd5b5061017e610216366004610cdd565b6000546001600160a01b0391821691161490565b34801561023657600080fd5b5061024a610245366004610d01565b6103db565b005b34801561025857600080fd5b5061024a610267366004610d01565b61042a565b34801561027857600080fd5b5061024a610287366004610cdd565b610552565b34801561029857600080fd5b506000546102ac906001600160a01b031681565b6040516001600160a01b03909116815260200161018a565b61024a6102d2366004610d01565b6105e2565b3480156102e357600080fd5b5061017e610703565b3480156102f857600080fd5b5061024a610307366004610cdd565b610733565b34801561031857600080fd5b5061032161087d565b60405161018a9190610d2d565b34801561033a57600080fd5b5061024a610349366004610d7a565b6108df565b61024a610a51565b34801561036257600080fd5b5061017e610371366004610cdd565b60036020526000908152604090205460ff1681565b34801561039257600080fd5b506102ac6103a1366004610db8565b610afc565b3480156103b257600080fd5b506102ac6103c1366004610db8565b610b26565b3480156103d257600080fd5b50610321610b36565b6000546001600160a01b0316331461040e5760405162461bcd60e51b815260040161040590610dd1565b60405180910390fd5b6001600160a01b03909116600090815260016020526040902055565b6000546001600160a01b031633146104845760405162461bcd60e51b815260206004820152601d60248201527f4f6e6c79206f776e65722063616e207472616e736665722066756e64730000006044820152606401610405565b804710156104d45760405162461bcd60e51b815260206004820152601d60248201527f496e73756666696369656e7420636f6e74726163742062616c616e63650000006044820152606401610405565b6040516001600160a01b0383169082156108fc029083906000818181858888f1935050505015801561050a573d6000803e3d6000fd5b50816001600160a01b03167f8c9a4f13b67cb64d7c6aa1ae0c9bf07694af521a28b93e7060020810ab4bc59f8260405161054691815260200190565b60405180910390a25050565b6000546001600160a01b0316331461057c5760405162461bcd60e51b815260040161040590610dd1565b6001600160a01b03166000818152600660205260408120805460ff19166001908117909155600a805491820181559091527fc65a7bb8d6351c1cf70c95a316cc6a92839c986682d98bc35f958f4883f9d2a80180546001600160a01b0319169091179055565b6000546001600160a01b0316331461067857336000908152600160205260409020548111156106535760405162461bcd60e51b815260206004820152601760248201527f5472616e73666572204c696d69742045786365656465640000000000000000006044820152606401610405565b3360009081526001602052604081208054839290610672908490610e2d565b90915550505b804710156106c85760405162461bcd60e51b815260206004820152601d60248201527f496e73756666696369656e7420636f6e74726163742062616c616e63650000006044820152606401610405565b6040516001600160a01b0383169082156108fc029083906000818181858888f193505050501580156106fe573d6000803e3d6000fd5b505050565b600080546001600160a01b0316330361071c5750600190565b503360009081526003602052604090205460ff1690565b3360009081526006602052604090205460ff166107625760405162461bcd60e51b815260040161040590610dd1565b6001600160a01b038116600090815260096020908152604080832033845290915290205460ff16156107cf5760405162461bcd60e51b8152602060048201526016602482015275165bdd481a185d9948185b1c9958591e481d9bdd195960521b6044820152606401610405565b6007546001600160a01b0382811691161461080557600780546001600160a01b0319166001600160a01b03831617905560006008555b6008805490600061081583610e46565b90915550506001600160a01b03811660009081526009602090815260408083203384529091529020805460ff1916600117905560085460031161087a57600080546001600160a01b0383166001600160a01b0319918216179091556007805490911690555b50565b6060600a8054806020026020016040519081016040528092919081815260200182805480156108d557602002820191906000526020600020905b81546001600160a01b031681526001909101906020018083116108b7575b5050505050905090565b6000546001600160a01b031633146109395760405162461bcd60e51b815260206004820152601960248201527f4f6e6c79206f776e65722063616e2073657420616363657373000000000000006044820152606401610405565b6001600160a01b038216600081815260036020908152604091829020805460ff191685151590811790915591519182527fe0d0d1199aec56521e891cd26fe0ee3ef93dbbed0757861a01e39fe747b4b684910160405180910390a28015610a4d576000805b6005548110156109fa57836001600160a01b0316600582815481106109c5576109c5610e5f565b6000918252602090912001546001600160a01b0316036109e857600191506109fa565b806109f281610e46565b91505061099e565b50806106fe5750600580546001810182556000919091527f036b6384b5eca791c62761152d0c79bb0604c104a5fb6f4eb0703f3154bb3db00180546001600160a01b0319166001600160a01b0384161790555b5050565b60003411610aa15760405162461bcd60e51b815260206004820152601e60248201527f4465706f736974206d7573742062652067726561746572207468616e203000006044820152606401610405565b3360009081526004602052604081208054349290610ac0908490610e75565b909155505060405134815233907fe1fffcc4923d04b559f4d29a8bfc6cda04eb5b0d3c460751c2402c5c5cc9109c9060200160405180910390a2565b600a8181548110610b0c57600080fd5b6000918252602090912001546001600160a01b0316905081565b60058181548110610b0c57600080fd5b60606000805b600554811015610baa576003600060058381548110610b5d57610b5d610e5f565b60009182526020808320909101546001600160a01b0316835282019290925260400190205460ff1615610b985781610b9481610e46565b9250505b80610ba281610e46565b915050610b3c565b5060008167ffffffffffffffff811115610bc657610bc6610e88565b604051908082528060200260200182016040528015610bef578160200160208202803683370190505b5090506000805b600554811015610cbf576003600060058381548110610c1757610c17610e5f565b60009182526020808320909101546001600160a01b0316835282019290925260400190205460ff1615610cad5760058181548110610c5757610c57610e5f565b9060005260206000200160009054906101000a90046001600160a01b0316838381518110610c8757610c87610e5f565b6001600160a01b039092166020928302919091019091015281610ca981610e46565b9250505b80610cb781610e46565b915050610bf6565b50909392505050565b6001600160a01b038116811461087a57600080fd5b600060208284031215610cef57600080fd5b8135610cfa81610cc8565b9392505050565b60008060408385031215610d1457600080fd5b8235610d1f81610cc8565b946020939093013593505050565b6020808252825182820181905260009190848201906040850190845b81811015610d6e5783516001600160a01b031683529284019291840191600101610d49565b50909695505050505050565b60008060408385031215610d8d57600080fd5b8235610d9881610cc8565b915060208301358015158114610dad57600080fd5b809150509250929050565b600060208284031215610dca57600080fd5b5035919050565b60208082526026908201527f596f7520617265206e6f7420617574686f72697a656420666f7220746869732060408201526530b1ba34b7b760d11b606082015260800190565b634e487b7160e01b600052601160045260246000fd5b81810381811115610e4057610e40610e17565b92915050565b600060018201610e5857610e58610e17565b5060010190565b634e487b7160e01b600052603260045260246000fd5b80820180821115610e4057610e40610e17565b634e487b7160e01b600052604160045260246000fdfea264697066735822122012a5a1ae9a930013e58c14414caa4033817a21108e119563fef866a22b83217e64736f6c63430008130033",
  "immutableReferences": {},
  "source": "// SPDX-License-Identifier: MIT\npragma solidity ^0.8.19;\n\n/*\nA simplified Smart Wallet:\n1. Only one owner.\n2. Can receive funds.\n3. Allows fund transfers.\n4. Non-owners have transfer limits.\n5. Owner can add authorized voters.\n6. Authorized voters can vote to change ownership (requires 3 votes).\n*/\n\ncontract ExampleTransferFund {\n\n    uint counter;\n    function getBalance() public view returns(uint) {\n        return address(this).balance;\n    }\n\n    function deposit() public payable {\n        counter++;\n     }\n\n    receive() external payable { }\n}\n\ncontract SmarContracttWallet {\n\n    address payable public owner;\n\n    mapping(address => uint) public limits;\n    mapping(address => bool) public AbletoSend;\n    mapping(address => bool) public allowed;\n\n    mapping(address => uint256) public userDeposits;\n\n    address[] public allowedUsers;\n\n    mapping(address => bool) authorizedVoters;\n\n    event Deposit(address indexed sender, uint amount);\n    event FundsTransferred(address indexed to, uint amount);\n    event AccessSet(address indexed user, bool allowed);\n\n    address payable nextOwner;\n    uint VoterCount;\n    uint constant votesNeeded = 3;\n    mapping(address => mapping(address => bool)) hasVoterAlrVoted;\n\n    constructor() {\n        owner = payable(msg.sender);\n    }\n\n    address[] public listofVoters;\n\n    function isOwner(address _addr) public view returns (bool) {\n    return _addr == owner;\n    }\n\n    function assignVoter(address _voter) public {\n        require(msg.sender == owner, \"You are not authorized for this action\");\n\n        authorizedVoters[_voter] = true;\n\n        listofVoters.push(_voter);\n    }\n\n    function getVoterList() public view returns (address[] memory) {\n        return listofVoters;\n    }\n\n    function voteForNewOwner(address payable _newOwner) public {\n        require(authorizedVoters[msg.sender], \"You are not authorized for this action\");\n\n        // this makes sure the same voter doesn't vote twice for the specific newOwner\n        require(hasVoterAlrVoted[_newOwner][msg.sender] == false, \"You have already voted\");\n\n        if(nextOwner != _newOwner){\n            nextOwner = _newOwner;\n            VoterCount = 0;\n        }\n\n        VoterCount++;\n        hasVoterAlrVoted[_newOwner][msg.sender] = true;\n\n        if(VoterCount >= votesNeeded){\n            owner = _newOwner;\n            nextOwner = payable(address(0));\n        }\n\n    }\n\n    // The limits are set for other parties by the owner through this function\n    function setLimit(address _whoCanSend, uint _restriction) public {\n        require(msg.sender == owner, \"You are not authorized for this action\");\n\n        // set limit\n        limits[_whoCanSend] = _restriction;\n\n        // if(_restriction > 0){\n        //     AbletoSend[_whoCanSend] = true;\n        // }\n        // else {\n        //     AbletoSend[_whoCanSend] = false;\n        // }\n        \n        \n    }\n\n    // Funds Transfering\n    function transferFunds(address payable _to, uint amountToTransfer) public payable {\n        //require(msg.sender == owner, \"This action is restricted to the owner\");\n\n       // If it's not the owner, then limits apply\n        if(msg.sender != owner) {\n        // If a non-zero limit is set for this address, enforce it.\n            // if (limits[msg.sender] != 0) {\n            // require(limits[msg.sender] >= amountToTransfer, \"Transfer Limit Exceeded\");\n            // limits[msg.sender] -= amountToTransfer;\n            // }\n            // Ensure the sender is allowed to transfer.\n\n            // require(isAllowed(msg.sender), \"You are not allowed to transfer funds\");\n            \n            require(limits[msg.sender] >= amountToTransfer, \"Transfer Limit Exceeded\");\n            // require(AbletoSend[msg.sender], \"Transfer Amount Unacceptable\");\n            limits[msg.sender] -= amountToTransfer;\n        }\n        require(address(this).balance >= amountToTransfer, \"Insufficient contract balance\");\n        _to.transfer(amountToTransfer);\n        \n\n        // The owner has no limit to transfer funds\n        // (bool success, bytes memory returnData) =  _to.call{value: amountToTransfer}(_payload);\n        // require(success, \"Failed\");\n        // return returnData;\n\n    }\n\n    // Returns an array of addresses that have allowed access.\n    function getAllowedUsers() public view returns (address[] memory) {\n        uint count = 0;\n        // First, count how many users have access.\n        for (uint i = 0; i < allowedUsers.length; i++) {\n            if (allowed[allowedUsers[i]]) {\n                count++;\n            }\n        }\n        // Allocate an array with the exact count.\n        address[] memory result = new address[](count);\n        uint j = 0;\n        for (uint i = 0; i < allowedUsers.length; i++) {\n            if (allowed[allowedUsers[i]]) {\n                result[j] = allowedUsers[i];\n                j++;\n            }\n        }\n        return result;\n    }\n\n    // Function to receive ETH\n    receive() external payable {\n        emit Deposit(msg.sender, msg.value);\n    }\n\n    // Explicit deposit function\n    function deposit() public payable {\n        require(msg.value > 0, \"Deposit must be greater than 0\");\n        userDeposits[msg.sender] += msg.value;\n        emit Deposit(msg.sender, msg.value);\n    }\n\n    // Set access restrictions; only the owner can do this.\n    function setAccess(address user, bool _allowed) public {\n        require(msg.sender == owner, \"Only owner can set access\");\n        allowed[user] = _allowed;\n        emit AccessSet(user, _allowed);\n\n        // If granting access, add user to allowedUsers array if not already present.\n        if (_allowed) {\n            bool alreadyExists = false;\n            for (uint i = 0; i < allowedUsers.length; i++) {\n                if (allowedUsers[i] == user) {\n                    alreadyExists = true;\n                    break;\n                }\n            }\n            if (!alreadyExists) {\n                allowedUsers.push(user);\n            }\n        }\n    }\n\n    // Function to check if the caller is allowed to access the wallet.\n    // It simply returns the value in the mapping. (Defaults to false if not set.)\n    function isAllowed() public view returns (bool) {\n        if (msg.sender == owner) {\n            return true;\n        }\n        return allowed[msg.sender];\n    }\n\n    // Transfer funds from the contract; only the owner is allowed in this example.\n    function exampletransferFunds(address payable to, uint amount) external {\n        require(msg.sender == owner, \"Only owner can transfer funds\");\n        require(address(this).balance >= amount, \"Insufficient contract balance\");\n        to.transfer(amount);\n        emit FundsTransferred(to, amount);\n    }\n\n\n}",
  "sourcePath": "/Users/yash/smart-wallet/contracts/SmartWallet.sol",
  "compiler": {
    "name": "solc",
    "version": "0.8.19+commit.7dd6d404.Emscripten.clang"
  },
  "schemaVersion": "3.4.16",
  "updatedAt": "2025-02-22T18:08:46.403Z",
  "networkType": "ethereum",
  "devdoc": {
    "kind": "dev",
    "methods": {},
    "version": 1
  },
  "userdoc": {
    "kind": "user",
    "methods": {},
    "version": 1
  }
}