{
  "contractName": "SmarContracttWallet",
  "abi": [
    {
      "inputs": [],
      "stateMutability": "nonpayable",
      "type": "constructor"
    },
    {
      "anonymous": false,
      "inputs": [
        {
          "indexed": true,
          "internalType": "address",
          "name": "sender",
          "type": "address"
        },
        {
          "indexed": false,
          "internalType": "uint256",
          "name": "amount",
          "type": "uint256"
        }
      ],
      "name": "Deposit",
      "type": "event"
    },
    {
      "inputs": [
        {
          "internalType": "address",
          "name": "",
          "type": "address"
        }
      ],
      "name": "AbletoSend",
      "outputs": [
        {
          "internalType": "bool",
          "name": "",
          "type": "bool"
        }
      ],
      "stateMutability": "view",
      "type": "function",
      "constant": true
    },
    {
      "inputs": [
        {
          "internalType": "address",
          "name": "",
          "type": "address"
        }
      ],
      "name": "limits",
      "outputs": [
        {
          "internalType": "uint256",
          "name": "",
          "type": "uint256"
        }
      ],
      "stateMutability": "view",
      "type": "function",
      "constant": true
    },
    {
      "inputs": [
        {
          "internalType": "uint256",
          "name": "",
          "type": "uint256"
        }
      ],
      "name": "listofVoters",
      "outputs": [
        {
          "internalType": "address",
          "name": "",
          "type": "address"
        }
      ],
      "stateMutability": "view",
      "type": "function",
      "constant": true
    },
    {
      "inputs": [],
      "name": "owner",
      "outputs": [
        {
          "internalType": "address payable",
          "name": "",
          "type": "address"
        }
      ],
      "stateMutability": "view",
      "type": "function",
      "constant": true
    },
    {
      "stateMutability": "payable",
      "type": "receive",
      "payable": true
    },
    {
      "inputs": [
        {
          "internalType": "address",
          "name": "_voter",
          "type": "address"
        }
      ],
      "name": "assignVoter",
      "outputs": [],
      "stateMutability": "nonpayable",
      "type": "function"
    },
    {
      "inputs": [],
      "name": "getVoterList",
      "outputs": [
        {
          "internalType": "address[]",
          "name": "",
          "type": "address[]"
        }
      ],
      "stateMutability": "view",
      "type": "function",
      "constant": true
    },
    {
      "inputs": [
        {
          "internalType": "address payable",
          "name": "_newOwner",
          "type": "address"
        }
      ],
      "name": "voteForNewOwner",
      "outputs": [],
      "stateMutability": "nonpayable",
      "type": "function"
    },
    {
      "inputs": [
        {
          "internalType": "address",
          "name": "_whoCanSend",
          "type": "address"
        },
        {
          "internalType": "uint256",
          "name": "_restriction",
          "type": "uint256"
        }
      ],
      "name": "setLimit",
      "outputs": [],
      "stateMutability": "nonpayable",
      "type": "function"
    },
    {
      "inputs": [
        {
          "internalType": "address payable",
          "name": "_to",
          "type": "address"
        },
        {
          "internalType": "uint256",
          "name": "amountToTransfer",
          "type": "uint256"
        }
      ],
      "name": "transferFunds",
      "outputs": [],
      "stateMutability": "payable",
      "type": "function",
      "payable": true
    },
    {
      "inputs": [],
      "name": "deposit",
      "outputs": [],
      "stateMutability": "payable",
      "type": "function",
      "payable": true
    }
  ],
  "bytecode": "0x608060405234801561001057600080fd5b50600080546001600160a01b03191633179055610861806100326000396000f3fe6080604052600436106100955760003560e01c8063990dc9db11610059578063990dc9db1461019b578063a66c94e9146101ae578063b28d92ae146101ce578063d0e30db0146101f0578063d63bdb95146101f857600080fd5b806307fa49fe146100a157806320d7bec1146100e657806336db43b5146101215780636f09699c146101435780638da5cb5b1461016357600080fd5b3661009c57005b600080fd5b3480156100ad57600080fd5b506100d16100bc3660046106e7565b60026020526000908152604090205460ff1681565b60405190151581526020015b60405180910390f35b3480156100f257600080fd5b506101136101013660046106e7565b60016020526000908152604090205481565b6040519081526020016100dd565b34801561012d57600080fd5b5061014161013c36600461070b565b610218565b005b34801561014f57600080fd5b5061014161015e3660046106e7565b6102b5565b34801561016f57600080fd5b50600054610183906001600160a01b031681565b6040516001600160a01b0390911681526020016100dd565b6101416101a936600461070b565b610345565b3480156101ba57600080fd5b506101416101c93660046106e7565b610475565b3480156101da57600080fd5b506101e36105bf565b6040516100dd9190610737565b610141610621565b34801561020457600080fd5b50610183610213366004610784565b6106a8565b6000546001600160a01b0316331461024b5760405162461bcd60e51b81526004016102429061079d565b60405180910390fd5b6001600160a01b03821660009081526001602052604090208190558015610293576001600160a01b0382166000908152600260205260409020805460ff191660011790555050565b506001600160a01b03166000908152600260205260409020805460ff19169055565b6000546001600160a01b031633146102df5760405162461bcd60e51b81526004016102429061079d565b6001600160a01b03166000818152600360205260408120805460ff191660019081179091556007805491820181559091527fa66cc928b5edb82af9bd49922954155ab7b0942694bea4ce44661d9a8736c6880180546001600160a01b0319169091179055565b6000546001600160a01b0316331461043a57336000908152600160205260409020548111156103b65760405162461bcd60e51b815260206004820152601760248201527f5472616e73666572204c696d69742045786365656465640000000000000000006044820152606401610242565b3360009081526002602052604090205460ff166104155760405162461bcd60e51b815260206004820152601c60248201527f5472616e7366657220416d6f756e7420556e61636365707461626c65000000006044820152606401610242565b33600090815260016020526040812080548392906104349084906107f9565b90915550505b6040516001600160a01b0383169082156108fc029083906000818181858888f19350505050158015610470573d6000803e3d6000fd5b505050565b3360009081526003602052604090205460ff166104a45760405162461bcd60e51b81526004016102429061079d565b6001600160a01b038116600090815260066020908152604080832033845290915290205460ff16156105115760405162461bcd60e51b8152602060048201526016602482015275165bdd481a185d9948185b1c9958591e481d9bdd195960521b6044820152606401610242565b6004546001600160a01b0382811691161461054757600480546001600160a01b0319166001600160a01b03831617905560006005555b6005805490600061055783610812565b90915550506001600160a01b03811660009081526006602090815260408083203384529091529020805460ff191660011790556005546003116105bc57600080546001600160a01b0383166001600160a01b0319918216179091556004805490911690555b50565b6060600780548060200260200160405190810160405280929190818152602001828054801561061757602002820191906000526020600020905b81546001600160a01b031681526001909101906020018083116105f9575b5050505050905090565b600034116106715760405162461bcd60e51b815260206004820152601e60248201527f4465706f736974206d7573742062652067726561746572207468616e203000006044820152606401610242565b60405134815233907fe1fffcc4923d04b559f4d29a8bfc6cda04eb5b0d3c460751c2402c5c5cc9109c9060200160405180910390a2565b600781815481106106b857600080fd5b6000918252602090912001546001600160a01b0316905081565b6001600160a01b03811681146105bc57600080fd5b6000602082840312156106f957600080fd5b8135610704816106d2565b9392505050565b6000806040838503121561071e57600080fd5b8235610729816106d2565b946020939093013593505050565b6020808252825182820181905260009190848201906040850190845b818110156107785783516001600160a01b031683529284019291840191600101610753565b50909695505050505050565b60006020828403121561079657600080fd5b5035919050565b60208082526026908201527f596f7520617265206e6f7420617574686f72697a656420666f7220746869732060408201526530b1ba34b7b760d11b606082015260800190565b634e487b7160e01b600052601160045260246000fd5b8181038181111561080c5761080c6107e3565b92915050565b600060018201610824576108246107e3565b506001019056fea2646970667358221220f13fb72557873f21e194eaa3d1e735ba07e8d3a03400748055a845ddfd69321b64736f6c63430008130033",
  "immutableReferences": {},
  "source": "// SPDX-License-Identifier: MIT\npragma solidity ^0.8.19;\n\n/*\nA simplified Smart Wallet:\n1. Only one owner.\n2. Can receive funds.\n3. Allows fund transfers.\n4. Non-owners have transfer limits.\n5. Owner can add authorized voters.\n6. Authorized voters can vote to change ownership (requires 3 votes).\n*/\n\ncontract ExampleTransferFund {\n\n    uint counter;\n    function getBalance() public view returns(uint) {\n        return address(this).balance;\n    }\n\n    function deposit() public payable {\n        counter++;\n     }\n\n    receive() external payable { }\n}\n\ncontract SmarContracttWallet {\n\n    address payable public owner;\n\n    mapping(address => uint) public limits;\n    mapping(address => bool) public AbletoSend;\n\n    mapping(address => bool) authorizedVoters;\n\n    event Deposit(address indexed sender, uint amount);\n\n    address payable nextOwner;\n    uint VoterCount;\n    uint constant votesNeeded = 3;\n    mapping(address => mapping(address => bool)) hasVoterAlrVoted;\n\n    constructor() {\n        owner = payable(msg.sender);\n    }\n\n    address[] public listofVoters;\n\n    function assignVoter(address _voter) public {\n        require(msg.sender == owner, \"You are not authorized for this action\");\n\n        authorizedVoters[_voter] = true;\n\n        listofVoters.push(_voter);\n    }\n\n    function getVoterList() public view returns (address[] memory) {\n        return listofVoters;\n    }\n\n    function voteForNewOwner(address payable _newOwner) public {\n        require(authorizedVoters[msg.sender], \"You are not authorized for this action\");\n\n        // this makes sure the same voter doesn't vote twice for the specific newOwner\n        require(hasVoterAlrVoted[_newOwner][msg.sender] == false, \"You have already voted\");\n\n        if(nextOwner != _newOwner){\n            nextOwner = _newOwner;\n            VoterCount = 0;\n        }\n\n        VoterCount++;\n        hasVoterAlrVoted[_newOwner][msg.sender] = true;\n\n        if(VoterCount >= votesNeeded){\n            owner = _newOwner;\n            nextOwner = payable(address(0));\n        }\n\n    }\n\n    // The limits are set for other parties by the owner through this function\n    function setLimit(address _whoCanSend, uint _restriction) public {\n        require(msg.sender == owner, \"You are not authorized for this action\");\n\n        // set limit\n        limits[_whoCanSend] = _restriction;\n\n        if(_restriction > 0){\n            AbletoSend[_whoCanSend] = true;\n        }\n        else {\n            AbletoSend[_whoCanSend] = false;\n        }\n        \n        \n    }\n\n    // Funds Transfering\n    function transferFunds(address payable _to, uint amountToTransfer) public payable {\n        //require(msg.sender == owner, \"This action is restricted to the owner\");\n\n       // If it's not the owner, then limits apply\n        if(msg.sender != owner){\n\n            // checks for limits\n            require(limits[msg.sender] >= amountToTransfer, \"Transfer Limit Exceeded\");\n\n            //ensures no one's transfering unneccessary 0 currency repeatdly\n            require(AbletoSend[msg.sender], \"Transfer Amount Unacceptable\");\n\n            limits[msg.sender] -= amountToTransfer;\n\n        }\n\n        // The owner has no limit to transfer funds\n        // (bool success, bytes memory returnData) =  _to.call{value: amountToTransfer}(_payload);\n        // require(success, \"Failed\");\n        // return returnData;\n\n        _to.transfer(amountToTransfer);\n    }\n\n    function deposit() public payable {\n        require(msg.value > 0, \"Deposit must be greater than 0\");\n        emit Deposit(msg.sender, msg.value);\n    }\n\n    receive() external payable { }\n\n\n}",
  "sourcePath": "/Users/yash/smart-wallet/contracts/SmartWallet.sol",
  "compiler": {
    "name": "solc",
    "version": "0.8.19+commit.7dd6d404.Emscripten.clang"
  },
  "schemaVersion": "3.4.16",
  "updatedAt": "2025-02-17T01:01:34.321Z",
  "networkType": "ethereum",
  "devdoc": {
    "kind": "dev",
    "methods": {},
    "version": 1
  },
  "userdoc": {
    "kind": "user",
    "methods": {},
    "version": 1
  }
}